:020000040000FA
:100000000C9462000C948A000C948A000C948A0070
:100010000C948A000C948A000C948A000C948A0038
:100020000C948A000C948A000C948A000C948A0028
:100030000C948A000C948A000C948A000C948A0018
:100040000C9461030C948A000C942F030C94090304
:100050000C948A000C948A000C948A000C948A00F8
:100060000C948A000C948A000000000023002600F3
:10007000290000000008000201000003040700003E
:1000800000000000000000000000250028002B00F8
:1000900000000000240027002A00040404040404D3
:1000A0000404020202020202030303030303010227
:1000B00004081020408001020408102001020408F6
:1000C0001020620511241FBECFEFD8E0DEBFCDBFE8
:1000D00017E0A0E0B1E0E2E7FBE002C005900D927E
:1000E000AA3CB107D9F728E0AAECB7E001C01D92FD
:1000F000A938B207E1F710E0C2E6D0E004C02197CA
:10010000FE010E94B105C136D107C9F70E94AB03B9
:100110000C94B7050C940000CF93DF9390E0FC01A2
:10012000E255FF4F249186569F4FFC01849188230E
:10013000C1F090E0880F991FFC01E057FF4FC59177
:10014000D491FC01EA57FF4FA591B4919FB7F89461
:100150008881E22FE0958E2388838C91E823EC93AD
:100160009FBFDF91CF910895AF92BF92CF92DF9260
:10017000EF92FF920F931F93CF93DF936C017B015C
:100180008B01040F151FEB015E01AE18BF08C017ED
:10019000D10759F06991D601ED91FC910190F08160
:1001A000E02DC6010995892B79F7C501DF91CF9123
:1001B0001F910F91FF90EF90DF90CF90BF90AF9085
:1001C0000895FC01538D448D252F30E0842F90E05D
:1001D000821B930B541710F0CF9608950197089542
:1001E000FC01918D828D981761F0A28DAE0FBF2F0B
:1001F000B11D5D968C91928D9F5F9F73928F90E061
:1002000008958FEF9FEF0895FC01918D828D9817CF
:1002100031F0828DE80FF11D858D90E008958FEF0C
:100220009FEF0895FC01918D228D892F90E0805CD5
:100230009F4F821B91098F73992708958CEE97E049
:100240000E94120121E0892B09F420E0822F0895F9
:1002500080E090E0892B29F00E941E0181110C940E
:1002600000000895FC01A48DA80FB92FB11DA35A59
:10027000BF4F2C91848D90E001968F739927848FC6
:10028000A689B7892C93A089B1898C9183708064E9
:100290008C93938D848D981306C00288F389E02D8A
:1002A00080818F7D80830895EF92FF920F931F933B
:1002B000CF93DF93EC0181E0888F9B8D8C8D981319
:1002C0001AC0E889F989808185FF15C09FB7F89425
:1002D000EE89FF896083E889F98980818370806471
:1002E00080839FBF81E090E0DF91CF911F910F91BC
:1002F000FF90EF900895F62E0B8D10E00F5F1F4FCB
:100300000F731127E02E8C8D8E110CC00FB607FCD9
:10031000FACFE889F989808185FFF5CFCE010E9467
:100320003201F1CFEB8DEC0FFD2FF11DE35AFF4FA2
:10033000F0829FB7F8940B8FEA89FB8980818062F5
:10034000CFCFCF93DF93EC01888D8823B9F0AA89B2
:10035000BB89E889F9898C9185FD03C0808186FD80
:100360000DC00FB607FCF7CF8C9185FFF2CF8081CF
:1003700085FFEDCFCE010E943201E9CFDF91CF9111
:10038000089590E0FC01EE58FF4F2491FC01E255E6
:10039000FF4F3491FC01E656FF4FE491EE23C1F18B
:1003A000222339F02330E9F090F4213001F122309A
:1003B00011F1F0E0EE0FFF1FE859FF4FA591B49146
:1003C000EC91E32381E090E029F580E00895273067
:1003D000A9F02830C9F0243061F7809180008F7D2A
:1003E00003C0809180008F7780938000E2CF84B536
:1003F0008F7784BDDECF84B58F7DFBCF8091B00039
:100400008F778093B000D5CF8091B0008F7DF9CFEA
:1004100080E090E00895CF92DF92EF92FF92CF9329
:10042000DF932FB7F8948091D4079091D507A091CE
:10043000D607B091D7072FBF86509F4FAF4FBF4F02
:100440008093CB079093CC07A093CD07B093CE07B2
:100450001092CA07C091D807C1500C2E000CDD0BBA
:10046000C12CD12C7601C394C7FD1CC0FE01EE5EE9
:10047000FE4F80810E94C101B701A6010C2E04C06D
:10048000440F551F661F771F0A94D2F72091CA07A1
:10049000892B29F0422B4093CA072197E5CF40953D
:1004A0004223F9CF82E00E94C101892BD9F72FB7EF
:1004B000F8948091D4079091D507A091D607B09178
:1004C000D7072FBF4091CB075091CC076091CD0744
:1004D0007091CE07481759076A077B0718F7809174
:1004E000CA07DF91CF91FF90EF90DF90CF900895F2
:1004F000FC0101900020E9F73197AF01481B590B2F
:10050000BC018CEE97E00C94B4008F929F92AF9256
:10051000BF920F931F93CF93DF93CDB7DEB7A19711
:100520000FB6F894DEBF0FBECDBF19A2423008F45B
:100530004AE08E010F5D1F4F842E912CB12CA12C0F
:10054000A50194010E948F05E62FB901CA01EA3086
:10055000F4F4E05DD801EE938D01232B242B252BA1
:1005600079F790E080E0109719F0CD010E947802B1
:10057000A1960FB6F894DEBF0FBECDBFDF91CF912D
:100580001F910F91BF90AF909F908F900895E95C5D
:10059000E1CF0C947802CF92DF92EF92FF92CF934B
:1005A000DF9397FF1BC06B017C016DE28CEE97E03F
:1005B0000E945401EC0166277727CB016C197D0955
:1005C0008E099F094AE00E9485028C0F9D1FDF91D2
:1005D000CF91FF90EF90DF90CF9008954AE0DF91A8
:1005E000CF91FF90EF90DF90CF900C948502CF9346
:1005F000DF93BC01990F880B990B0E94CB02EC0191
:1006000083EF96E00E9478028C0F9D1FDF91CF91BF
:1006100008951F920F920FB60F9211242F933F93BC
:100620004F935F936F937F938F939F93AF93BF93FA
:10063000EF93FF938CEE97E00E943201FF91EF91D0
:10064000BF91AF919F918F917F916F915F914F91EA
:100650003F912F910F900FBE0F901F9018951F92F2
:100660000F920FB60F9211242F938F939F93EF93B6
:10067000FF93E091FC07F091FD078081E091020873
:10068000F091030882FD1BC09081809105088F5F67
:100690008F7320910608821741F0E0910508F0E081
:1006A000E451F84F958F80930508FF91EF919F914A
:1006B0008F912F910F900FBE0F901F9018958081F2
:1006C000F4CF1F920F920FB60F9211242F933F93E6
:1006D0008F939F93AF93BF938091D4079091D50749
:1006E000A091D607B091D7073091D30723E0230F0D
:1006F0002D3758F50196A11DB11D2093D307809386
:10070000D4079093D507A093D607B093D7078091CD
:10071000CF079091D007A091D107B091D207019651
:10072000A11DB11D8093CF079093D007A093D1074F
:10073000B093D207BF91AF919F918F913F912F912D
:100740000F900FBE0F901F90189526E8230F02966A
:10075000A11DB11DD2CF789484B5826084BD84B5CB
:10076000816084BD85B5826085BD85B5816085BDAC
:1007700080916E00816080936E0010928100809164
:1007800081008260809381008091810081608093EC
:100790008100809180008160809380008091B10011
:1007A00084608093B1008091B00081608093B0003C
:1007B00080917A00846080937A0080917A008260D0
:1007C00080937A0080917A00816080937A00809192
:1007D0007A00806880937A001092C100E091FC0753
:1007E000F091FD0782E08083E091F807F091F9072E
:1007F0001082E091FA07F091FB0780E1808310926C
:100800000408E0910008F091010886E08083E091FF
:10081000FE07F091FF07808180618083E091FE07F1
:10082000F091FF07808188608083E091FE07F0915E
:10083000FF07808180688083E091FE07F091FF07C9
:1008400080818F7D808384E08093D80783E08093CC
:10085000EB078AED95E09093DA078093D90782E061
:100860000E948C0084E00E948C0085E00E948C0035
:1008700086E00E948C0087E00E948C0080E0882E39
:1008800080E0982EC0E00C2F10E08091EB07082E3E
:10089000000C990B0817190724F582E00E94C1018A
:1008A000892B99F382E00E94C101892B19F00E94E3
:1008B0000B02582EF801E051F94F8081CF5F85116E
:1008C000C0E086EF96E00E94C9026C2F70E090E0D5
:1008D00080E04AE00E94850283EF96E00E94780261
:1008E000D2CF82E097E00E94C90287E090E00E94A8
:1008F000F7028DE197E00E94C902C4EED7E087E0DD
:10090000CB3ED807D9F082E00E94C101892BB9F310
:1009100082E00E94C101892B19F00E940B02682E0F
:100920006992662D062C000C770B880B990B0E94A0
:10093000CB028CE297E00E94C902E1CF83EF96E000
:100940000E947802EDEDF7E0C4EED7E0DF0180E031
:1009500090E03D912991321301C08F5F9F5F9730E6
:10096000C1F7873049F48FE297E00E94780283EF65
:1009700096E00E94780286CFA4EEB7E080E09D91D9
:1009800091938F5F8730D9F7712CF12CE12CC091B6
:10099000DB07D091DC07CE0DDF1D8091D907909148
:1009A000DA07C817D90714F0D0E0C0E0FE01EA5E0C
:1009B000FE4F6F015E01F7E0AF0EB11C04EE17E0D1
:1009C000CA15DB0509F446C0F60141906F01F80134
:1009D00030808CE497E0341020C00E94C902CE0120
:1009E0000E94F70287E697E00E94C902F801608141
:1009F000062E000C770B880B990B0E94CB028EEF12
:100A000096E00E94C902832D330C990B0E94F702D5
:100A1000739421960F5F1F4FD3CF0E94C902CE015E
:100A20000E94F70286E897E00E94C902F8016081FF
:100A3000062E000C770B880B990B0E94CB028FE9D6
:100A400097E00E94C902842D440C990B0E94F70282
:100A5000712CDFCFF7E07F1691F087E0E80EF11CF4
:100A600096E4E916F10409F092CF8091DB079091AA
:100A7000DC0707969093DC078093DB0703CFD093C6
:100A8000DC07C093DB078091D9079091DA07C8177C
:100A9000D90724F01092DC071092DB0784EA97E074
:100AA0000E94780283EF96E00E94780281149104FC
:100AB00009F4E8CE0E941E01882309F4E3CE0E94C7
:100AC0000000E0CEECEEF7E01382128288EE93E0B5
:100AD000A0E0B0E084839583A683B78384E091E0AF
:100AE0009183808385EC90E09587848784EC90E007
:100AF0009787868780EC90E0918B808B81EC90E0EB
:100B0000938B828B82EC90E0958B848B86EC90E0CB
:100B1000978B868B118E128E138E148E0895A1E200
:100B20001A2EAA1BBB1BFD010DC0AA1FBB1FEE1F67
:100B3000FF1FA217B307E407F50720F0A21BB30BB2
:100B4000E40BF50B661F771F881F991F1A9469F72E
:100B500060957095809590959B01AC01BD01CF018A
:100B60000895EE0FFF1F0590F491E02D0994F8947D
:100B7000FFCF000000005401B400E100A101120108
:100B8000F00004010405060705090C0F0B04070318
:100B90000602060C0F070B09050E070C090C050AC7
:100BA0000506080C03020C010504050E05070E08D6
:100BB0000B02070509040806040D0F040D040A06BC
:100BC0000508010E050905090A0702020D060E08AF
:100BD00008080808080B0C01030D0B0C02020D0895
:100BE000080C010D0D0E03050304090F0B01080786
:100BF0000F020F0B0F05020A05030A070E040E0170
:100C000003020D010A080A06050B030C0E0301037B
:100C10000702010609070F030D0B0A050B0E0E094B
:100C20000307050F06080F040D03040F0A0103084C
:100C30000E0A050E02080D05090F0D0707020E0228
:100C400006060B0B070D0E08030E0D01060C030222
:100C5000040C02020709080707080603080807042E
:100C60000C020C0C04030E070709040A0E07080700
:100C70000B0807030207020605080803090A030711
:100C8000030B0109030802080F0C050605050F06F2
:100C90000709080A06050A0F0C0E0F040E09040DB9
:100CA000080908080C0C040B0B05090B020D0D0EAE
:100CB0000E05050103020C010F0E0F0E0904090FAA
:100CC0000A0602060D03020E040B0C07070C0B0D9F
:100CD0000207050C060B010A0C0E06030B010F029E
:100CE000060D0202090F0C0D0E0407050F080A0C71
:100CF0000E05040B0C02010B040D0F0302020E0182
:100D0000060906040605010E0A0A0A0F0E08040A5F
:100D10000303060B090F0B0C0B0C08050B080A0844
:100D200007030D040C030F0A0F0B0F0F0505060731
:100D30000C03020D03070F09010D0B060F050E0D25
:100D4000050D0A030F0B080E01060C020B0C0F0E0B
:100D50000809080D020A020406060C0D07080A011C
:100D6000030E07040E0D0502040A07010C03080117
:100D7000060A010F080F0109020C0D02010D0F0FE9
:100D8000080F09080E0E0C080D03040E0D01080AC9
:100D9000020906010F020C040805030205040F0CEA
:100DA0000B0702040A060108070C080B0306080FCC
:100DB00009090202090D020207050B06060D0F0EB6
:100DC0000506020E0E02030E09030F0906080F099D
:100DD000060804060A010C0E090D0F010C09090E84
:100DE000020D0D040A02030201050F02080C07049C
:100DF0000F0E0805010E0D0206090F0C0803070D62
:100E000001040D05030E0C0F0A0C0F0C0D0A08024D
:100E10000C0A050D0E0E0A0A04080B0A0F0F0E012C
:100E20000F0B0E0B0A040E02090E0907080C0A0D1F
:100E30000E0F0F040C090D0E0D050B04090A070512
:100E40000A040A0C0D0E0C070B07050B0104040B1A
:100E50000F08020C040A030B0C07070E0707090909
:100E6000040D0F0E0D0209090E050D0D0B030F03E6
:100E70000F0C0A0D0F050C03070C0E080501010BE2
:100E8000080B0E0A080B070D010E0A060B0F020ACB
:100E90000B09010701040C040A0E03040C060804E4
:100EA000070E0404050704020704060405040A0CDF
:100EB0000E03060B070D0A080101010E040B0E06B6
:100EC000080E07080F0709070B090B0A03020F0D8D
:100ED00001040F0F0D0C0D0E0802070603040C0D84
:100EE000060203090E070F05090D0B09060A0D0975
:100EF0000703050C040B050D060C0D04020C060A75
:100F0000020A0A0F0B030D0F03050F030401020A67
:100F1000080A0C0F09010B0506010B0D030307025C
:100F20000A060D03060E0103040E08090E060C073F
:100F30000E040101090F0B0D0F0E030C0601030A2D
:100F4000060D070F0A0607030B0901020F080C0C18
:100F5000030A020104080A0208060F0A0B0E0E0D0E
:100F6000010A0401050D010F0403030B0E0F070B0B
:100F7000010F0503070401040A01020F060A0F0A04
:100F80000801020F090A0909090C040C03060C02E6
:100F9000010C0F01030A080A090E0E040B0B0E03C5
:100FA0000B050D0A010804010D010702080A0B07D1
:100FB0000A0B0E020E0D0D0E0E0B0F0B090A0E0F73
:100FC0000E0E020E0408020706020504070E050CA9
:100FD0000B0C02010A050C010209070A030F0A089B
:100FE000090A080809050E020D09010305030C0191
:100FF00008050806010C0F070E0307010B0908027C
:10100000090A07010204090C02060206020C040D7B
:101010000205030F0A050C0108020D0A0203010A6A
:101020000C040207090607070B0D0A090D0506093E
:101030000F05020F040609020D0F0B02050E010930
:101040000A07040F0F090D090A0F0901030401061D
:101050000C03090D030F02040E08060B0A04070413
:10106000040E0B0F07060A06080202090F0402010C
:1010700001070C0C020A090E0D0F0701050C070EE3
:10108000080C06080E060902090C0E0F0B0D0205CE
:1010900006090E08040F0F0A0F0E08010E050B0BB0
:1010A00002030705090B0F0D080907010D080E0EB5
:1010B00004010D0F090C010D04080B040A01040CB6
:1010C0000C0B09010C080105020C0E0D0F090A0496
:1010D0000E0707080105080F0A07070F0D0D090D78
:1010E0000D0F0D0B0A020F060F0F05010105070872
:1010F000030D0C0C0A0C0408010907060908080571
:101100000101080E0B010C0F0C0105040206060775
:101110000706040D0109040D05050E070803040563
:10112000030C040A070F060F08020B05020B02024C
:1011300007010A0804040F0D030F07070B05060734
:101140000E0E05040E050A0909040705020C040C1D
:101150000E070B070B010102010A0504090B080128
:10116000020E0F0F0F0D0A00507265616D626C6503
:10117000203D200073697A656F6653656E64696E01
:1011800067526F6C6C696E67436F64653A200052FA
:101190006F6C6C696E6720436F64653A20002C2089
:1011A00000526F6C6C696E6720436F6465205265F6
:1011B000706561742044657465637465640054727D
:1011C0007920726F6C6C696E6720436F6465205084
:1011D0006F736974696F6E2000202A2A2A20526F6B
:1011E0006C6C696E6720436F646520436F72726533
:1011F0006374202A2A2A200020526F6C6C696E6763
:1012000020436F646520494E434F5252454354205A
:1012100000203C3E2000202A2A2A2050617373655A
:101220006420526F6C6C696E6720436F6465204365
:0C1230006865636B73202A2A2A200000E6
:107800000C94343C0C94513C0C94513C0C94513CE1
:107810000C94513C0C94513C0C94513C0C94513CB4
:107820000C94513C0C94513C0C94513C0C94513CA4
:107830000C94513C0C94513C0C94513C0C94513C94
:107840000C94513C0C94513C0C94513C0C94513C84
:107850000C94513C0C94513C0C94513C0C94513C74
:107860000C94513C0C94513C11241FBECFEFD8E036
:10787000DEBFCDBF11E0A0E0B1E0ECE9FFE702C060
:1078800005900D92A230B107D9F712E0A2E0B1E065
:1078900001C01D92AD30B107E1F70E942D3D0C945F
:1078A000CC3F0C94003C982F959595959595959582
:1078B000905D8F708A307CF0282F295A8091C0000B
:1078C00085FFFCCF9093C6008091C00085FFFCCF60
:1078D0002093C6000895282F205DF0CF982F809127
:1078E000C00085FFFCCF9093C6000895EF92FF92F1
:1078F0000F931F93EE24FF2487018091C00087FD22
:1079000017C00894E11CF11C011D111D81E4E8164B
:1079100082E4F8068FE0080780E0180770F3E09132
:107920000401F091050109958091C00087FFE9CF1E
:107930008091C6001F910F91FF90EF9008950E94D3
:10794000763C982F8091C00085FFFCCF9093C600B5
:1079500091362CF490330CF09053892F089597555D
:10796000892F08951F930E949F3C182F0E949F3CCF
:107970001295107F810F1F9108951F93182F882350
:1079800021F00E94763C1150E1F71F9108951F935A
:10799000182F0E94763C803249F0809103018F5F5E
:1079A000809303018530C1F01F9108958091C0003C
:1079B00085FFFCCF84E18093C6008091C00085FFE5
:1079C000FCCF1093C6008091C00085FFFCCF80E102
:1079D0008093C6001F910895E0910401F091050184
:1079E00009951F9108950E94763C803241F0809164
:1079F00003018F5F80930301853081F008958091AA
:107A0000C00085FFFCCF84E18093C6008091C00058
:107A100085FFFCCF80E18093C6000895E0910401CA
:107A2000F09105010995089540E951E08823A1F0FE
:107A30002D9A28EE33E0FA013197F1F721503040CA
:107A4000D1F72D9828EE33E0FA013197F1F7215064
:107A50003040D1F7815061F708953F924F925F9285
:107A60006F927F928F929F92AF92BF92CF92DF924E
:107A7000EF92FF920F931F93CF93DF93000080E16B
:107A80008093C4001092C50088E18093C10086E015
:107A90008093C2005098589A259A81E00E94143D24
:107AA00024E1F22E9EE1E92E85E9D82E0FE0C02ECA
:107AB00010E1B12EAA24A394B1E49B2EA6E58A2E50
:107AC000F2E57F2EE0E26E2E79E4572E63E5462E36
:107AD00050E5352E0E94763C8033B1F18133B9F107
:107AE000803409F46FC0813409F476C0823409F41B
:107AF00085C0853409F488C0803531F1823521F1A3
:107B0000813511F1853509F485C0863509F48DC0BC
:107B1000843609F496C0843709F403C1853709F423
:107B200072C1863709F466C0809103018F5F80932C
:107B30000301853079F6E0910401F0910501099582
:107B40000E94763C803351F60E94F33CC3CF0E94E2
:107B5000763C803249F78091C00085FFFCCFF092DF
:107B6000C6008091C00085FFFCCF9092C600809136
:107B7000C00085FFFCCF8092C6008091C00085FFC9
:107B8000FCCF7092C6008091C00085FFFCCF609250
:107B9000C6008091C00085FFFCCF5092C600809146
:107BA000C00085FFFCCF4092C6008091C00085FFD9
:107BB000FCCF3092C6008091C00085FFFCCFB09210
:107BC000C60088CF0E94763C863808F4BDCF0E945C
:107BD000763C0E94F33C7ECF0E94763C803809F4CC
:107BE0009CC0813809F40BC1823809F43CC1883942
:107BF00009F48FC080E00E94C73C6CCF84E10E94F2
:107C0000BD3C0E94F33C66CF85E00E94BD3C0E94D3
:107C1000F33C60CF0E94763C809306010E94763C44
:107C2000809307010E94F33C55CF0E94763C80333D
:107C300009F41DC183E00E94BD3C80E00E94C73C66
:107C400049CF0E94763C809309020E94763C809343
:107C5000080280910C028E7F80930C020E94763C79
:107C6000853409F415C18091080290910902892B8D
:107C700089F000E010E00E94763CF801E85FFE4FDA
:107C800080830F5F1F4F80910802909109020817AF
:107C9000190788F30E94763C803209F045CF809125
:107CA0000C0280FF01C16091060170910701660F0F
:107CB000771F7093070160930601A0910802B091AD
:107CC00009021097C9F0E8E0F1E09B01AD014E0F09
:107CD0005F1FF999FECF32BD21BD819180BDFA9A17
:107CE000F99A2F5F3F4FE417F50799F76A0F7B1F4B
:107CF00070930701609306018091C00085FFFCCF5F
:107D0000F092C6008091C00085FFFCCFB092C60003
:107D1000E1CE83E00E94C73CDDCE82E00E94C73CFA
:107D2000D9CE0E94763C809309020E94763C8093D3
:107D300008028091060190910701880F991F909386
:107D40000701809306010E94763C853409F4A6C0A1
:107D500080910C028E7F80930C020E94763C8032D0
:107D600009F0B8CE8091C00085FFFCCFF092C6002C
:107D7000609108027091090261157105B9F140E046
:107D800050E080910C02A82FA170B82FB27011C0E2
:107D9000BB2309F45CC0E0910601F0910701319624
:107DA000F0930701E09306014F5F5F4F46175707B7
:107DB000E8F4AA2369F3F999FECF209106013091E6
:107DC000070132BD21BDF89A90B58091C00085FFB2
:107DD000FCCF9093C6002F5F3F4F30930701209355
:107DE00006014F5F5F4F4617570718F38091C00099
:107DF00085FDE5CE8091C00085FFF8CFE0CE81E023
:107E00000E94C73C67CE0E94763C803209F08CCE3F
:107E10008091C00085FFFCCFF092C6008091C00029
:107E200085FFFCCFE092C6008091C00085FFFCCFAB
:107E3000D092C6008091C00085FFFCCFC092C600E2
:107E40008091C00085FFFCCFB092C60043CEE09188
:107E50000601F091070194918091C00085FFFCCF4D
:107E60009093C6009CCF80E10E94C73C33CE0E9415
:107E7000763C0E94763C182F0E94763C112309F430
:107E800083C0113009F484C08FE00E94C73C22CE29
:107E900080910C02816080930C02E5CE80910C02EF
:107EA000816080930C0259CF809107018823880F4D
:107EB000880B8A2180930B02809106019091070123
:107EC000880F991F90930701809306018091080203
:107ED00080FF09C080910802909109020196909359
:107EE000090280930802F894F999FECF1127E091D6
:107EF0000601F0910701C8E0D1E08091080290915D
:107F00000902103091F40091570001700130D9F34B
:107F100003E000935700E89500915700017001308D
:107F2000D9F301E100935700E89509901990009169
:107F3000570001700130D9F301E000935700E89534
:107F40001395103498F011270091570001700130FB
:107F5000D9F305E000935700E895009157000170B0
:107F60000130D9F301E100935700E895329602976A
:107F700009F0C7CF103011F00296E5CF112480919F
:107F8000C00085FFB9CEBCCE8EE10E94C73CA2CD19
:0E7F900085E90E94C73C9ECDF894FFCF80008B
:00000001FF
