:100000000C9462000C948A000C948A000C948A0070
:100010000C948A000C948A000C948A000C948A0038
:100020000C948A000C948A000C948A000C948A0028
:100030000C948A000C948A000C948A000C948A0018
:100040000C94FC020C948A000C94CA020C94A40236
:100050000C948A000C948A000C948A000C948A00F8
:100060000C948A000C948A000000000023002600F3
:10007000290000000008000201000003040700003E
:1000800000000000000000000000250028002B00F8
:1000900000000000240027002A00040404040404D3
:1000A0000404020202020202030303030303010227
:1000B00004081020408001020408102001020408F6
:1000C0001020400511241FBECFEFD8E0DEBFCDBF0A
:1000D00017E0A0E0B1E0EAEBF0E102C005900D927C
:1000E000AC38B107D9F728E0ACE8B7E001C01D9201
:1000F000AB38B207E1F710E0C2E6D0E004C02197C8
:10010000FE010E947605C136D107C9F70E94460359
:100110000C945B080C940000CF93DF9390E0FC01FB
:10012000E255FF4F249186569F4FFC01849188230E
:10013000C1F090E0880F991FFC01E057FF4FC59177
:10014000D491FC01EA57FF4FA591B4919FB7F89461
:100150008881E22FE0958E2388838C91E823EC93AD
:100160009FBFDF91CF910895AF92BF92CF92DF9260
:10017000EF92FF920F931F93CF93DF936C017B015C
:100180008B01040F151FEB015E01AE18BF08C017ED
:10019000D10759F06991D601ED91FC910190F08160
:1001A000E02DC6010995892B79F7C501DF91CF9123
:1001B0001F910F91FF90EF90DF90CF90BF90AF9085
:1001C0000895FC01538D448D252F30E0842F90E05D
:1001D000821B930B541710F0CF9608950197089542
:1001E000FC01918D828D981761F0A28DAE0FBF2F0B
:1001F000B11D5D968C91928D9F5F9F73928F90E061
:1002000008958FEF9FEF0895FC01918D828D9817CF
:1002100031F0828DE80FF11D858D90E008958FEF0C
:100220009FEF0895FC01918D228D892F90E0805CD5
:100230009F4F821B91098F73992708958EEE97E047
:100240000E94120121E0892B09F420E0822F0895F9
:1002500080E090E0892B29F00E941E0181110C940E
:1002600000000895FC01A48DA80FB92FB11DA35A59
:10027000BF4F2C91848D90E001968F739927848FC6
:10028000A689B7892C93A089B1898C9183708064E9
:100290008C93938D848D981306C00288F389E02D8A
:1002A00080818F7D80830895EF92FF920F931F933B
:1002B000CF93DF93EC0181E0888F9B8D8C8D981319
:1002C0001AC0E889F989808185FF15C09FB7F89425
:1002D000EE89FF896083E889F98980818370806471
:1002E00080839FBF81E090E0DF91CF911F910F91BC
:1002F000FF90EF900895F62E0B8D10E00F5F1F4FCB
:100300000F731127E02E8C8D8E110CC00FB607FCD9
:10031000FACFE889F989808185FFF5CFCE010E9467
:100320003201F1CFEB8DEC0FFD2FF11DE35AFF4FA2
:10033000F0829FB7F8940B8FEA89FB8980818062F5
:10034000CFCFCF93DF93EC01888D8823B9F0AA89B2
:10035000BB89E889F9898C9185FD03C0808186FD80
:100360000DC00FB607FCF7CF8C9185FFF2CF8081CF
:1003700085FFEDCFCE010E943201E9CFDF91CF9111
:10038000089590E0FC01EE58FF4F2491FC01E255E6
:10039000FF4F3491FC01E656FF4FE491EE23C1F18B
:1003A000222339F02330E9F090F4213001F122309A
:1003B00011F1F0E0EE0FFF1FE859FF4FA591B49146
:1003C000EC91E32381E090E029F580E00895273067
:1003D000A9F02830C9F0243061F7809180008F7D2A
:1003E00003C0809180008F7780938000E2CF84B536
:1003F0008F7784BDDECF84B58F7DFBCF8091B00039
:100400008F778093B000D5CF8091B0008F7DF9CFEA
:1004100080E090E00895AF92BF92CF92DF92EF928A
:10042000FF920F931F93CF93DF932FB7F894809190
:100430009A0790919B07A0919C07B0919D072FBFB1
:1004400086509F4FAF4FBF4F80938D0790938E077D
:10045000A0938F07B0939007109291071092920784
:10046000109293071092940710928C07C0919E07E8
:10047000C1500C2E000CDD0BC12CD12C7601C39485
:10048000C7FD1CC0FE01EE5EFE4F80810E94C101CF
:10049000B701A6010C2E04C0440F551F661F771F1D
:1004A0000A94D2F720918C07892B29F0422B409394
:1004B0008C072197E5CF40954223F9CF82E00E9437
:1004C000C101892BD9F72FB7F89480919A079091A1
:1004D0009B07A0919C07B0919D072FBFA0908D070F
:1004E000B0908E07C0908F07D0909007E090910752
:1004F000F090920700919307109194079C01AD0131
:1005000060E070E080E090E00E946D05B9F2B0F22A
:1005100080918C07DF91CF911F910F91FF90EF9009
:10052000DF90CF90BF90AF90089542EB57E0FA0173
:1005300001900020E9F7AF01435B574062EB77E0A1
:100540008EEE97E00C94B4001F920F920FB60F92AC
:1005500011242F933F934F935F936F937F938F93C8
:100560009F93AF93BF93EF93FF938EEE97E00E941C
:100570003201FF91EF91BF91AF919F918F917F9148
:100580006F915F914F913F912F910F900FBE0F9000
:100590001F9018951F920F920FB60F9211242F9350
:1005A0008F939F93EF93FF93E091FE07F091FF07E6
:1005B0008081E0910408F091050882FD1BC09081C4
:1005C000809107088F5F8F7320910808821741F090
:1005D000E0910708F0E0E251F84F958F809307080B
:1005E000FF91EF919F918F912F910F900FBE0F90E0
:1005F0001F9018958081F4CF1F920F920FB60F9223
:1006000011242F933F938F939F93AF93BF93809128
:100610009A0790919B07A0919C07B0919D073091FC
:10062000990723E0230F2D3758F50196A11DB11D21
:100630002093990780939A0790939B07A0939C0718
:10064000B0939D078091950790919607A091970789
:10065000B09198070196A11DB11D809395079093C5
:100660009607A0939707B0939807BF91AF919F917A
:100670008F913F912F910F900FBE0F901F90189563
:1006800026E8230F0296A11DB11DD2CFCF93DF9391
:100690001F92CDB7DEB7789484B5826084BD84B5EF
:1006A000816084BD85B5826085BD85B5816085BD6D
:1006B00080916E00816080936E0010928100809125
:1006C00081008260809381008091810081608093AD
:1006D0008100809180008160809380008091B100D2
:1006E00084608093B1008091B00081608093B000FD
:1006F00080917A00846080937A0080917A00826091
:1007000080937A0080917A00816080937A00809152
:100710007A00806880937A001092C100E091FE0711
:10072000F091FF0782E08083E091FA07F091FB07E8
:100730001082E091FC07F091FD0780E18083109228
:100740000608E0910208F091030886E08083E091BA
:100750000008F0910108808180618083E0910008A9
:10076000F0910108808188608083E0910008F09119
:100770000108808180688083E0910008F091010881
:1007800080818F7D808384E080939E0783E08093C7
:10079000B10788E795E09093A00780939F0782E0D8
:1007A0000E948C0084E00E948C0085E00E948C00F6
:1007B00086E00E948C0087E00E948C0029EF822E48
:1007C00026E0922E10E08091B107181780F582E0A4
:1007D0000E94C101892BB9F382E00E94C101892BDB
:1007E00019F00E940B028983E12FF0E0E257F94FE4
:1007F00020813981832F330F990B1F5F281719062A
:1008000009F010E01F921F9381E996E09F938F9368
:10081000E2EBF7E0FF93EF930E9483050E949502BD
:100820000F900F900F900F900F900F90CCCF1F92C2
:1008300087E08F9382EA96E09F938F9382EB97E015
:100840009F938F930E9483050E94950262EC76E04D
:1008500082EB97E00E947C050E94950281EBC82EF6
:1008600087E0D82E0F900F900F900F900F900F9061
:100870000AEA17E092EDE92E96E0F92EC016D106AD
:1008800019F182E00E94C101892BC1F382E00E942C
:10089000C101892B19F00E940B02482EF8014192E8
:1008A0008F011F924F92FF92EF9222EB37E03F931E
:1008B0002F930E9483050E9495020F900F900F9036
:1008C0000F900F900F90DACF6FEB76E082EB97E00E
:1008D0000E947C050E94950263EA77E02AEA37E0ED
:1008E000FB0180E04191D9019D919D01491301C017
:1008F0008F5FB7E0EA3AFB07A9F7EAEAF7E087304B
:1009000049F469ED76E082EB97E00E947C050E9455
:10091000950258CF8191DB018D93BD010E171F0702
:10092000C9F7F12CE12C512C6090A1077090A2071F
:100930006E0C7F1C80919F079091A0076816790626
:1009400010F0712C612CF301EA5EFE4F5F010AEAA0
:1009500017E06301F7E0CF0ED11C6C147D0408F0A2
:1009600056C0D5013D905D01F801208023102AC0BA
:100970007F926F929F928F9222EB37E03F932F935B
:100980000E9483050E9495021F922F92D8018C919C
:100990001F928F93E9E1F7E0FF93EF9382EB97E0EB
:1009A0009F938F930E9483050E94950253940FB6E4
:1009B000F894DEBF0FBECDBFFFEF6F1A7F0A0F5F47
:1009C0001F4FCBCF7F926F929F928F9222EB37E097
:1009D0003F932F930E9483050E9495021F923F929E
:1009E000D8018C911F928F93E2E4F7E0FF93EF938D
:1009F00082EB97E09F938F930E9483050E9495025C
:100A00000FB6F894DEBF0FBECDBF512CD5CF27E077
:100A1000521691F037E0E30EF11C86E4E816F1047B
:100A200009F082CF8091A1079091A2070796909339
:100A3000A2078093A107C6CED092A207C092A107B9
:100A400080919F079091A007C816D90620F01092B8
:100A5000A2071092A10766E677E082EB97E00E947A
:100A60007C050E94950280E090E0892B09F4AACED3
:100A70000E941E01882309F4A5CE0E940000A2CE88
:100A8000EEEEF7E01382128288EE93E0A0E0B0E091
:100A900084839583A683B78384E091E091838083E8
:100AA00085EC90E09587848784EC90E09787868733
:100AB00080EC90E0918B808B81EC90E0938B828B2B
:100AC00082EC90E0958B848B86EC90E0978B868B04
:100AD000118E128E138E148E08952A153B054C0527
:100AE0005D056E057F05800791070895EE0FFF1FD6
:100AF0000590F491E02D0994FB01DC0101900D9229
:100B00000020E1F70895AEE0B0E0E9E8F5E00C94EC
:100B100032080D891E8986E08C831A8309838FEF42
:100B20009FE79E838D83AE01475E5F4F6F89788D0F
:100B3000CE0101960E94A6052F813885020F131F52
:100B4000F80110822E96E4E00C944E08ABE0B0E081
:100B5000ECEAF5E00C9424087C013B018A01FC01DD
:100B600017821682838181FFC8C1CE0101965C0184
:100B7000F7019381F30193FD859193FF81913F01EB
:100B8000882309F453C1853239F493FD859193FF8D
:100B900081913F01853229F4B70190E00E949607C8
:100BA000E7CF912C212C312CFFE1F31538F08B325B
:100BB00011F190F4803209F1833229F137FC3CC005
:100BC00020ED280F2A3050F536FE20C08AE0989E8E
:100BD000200D1124922E06C08D3291F0803371F7D2
:100BE000689430F8F30193FD859193FF81913F0163
:100BF0008111DACF21C0689431F8689432F8F2CFCD
:100C0000689433F8EFCF689434F8ECCFEAE02E9E86
:100C1000200D1124222E689435F8E4CF8E3229F469
:100C200036FC04C1689436F8DDCF8C3619F468942C
:100C300037F8D8CF8836B1F2982F9F7D95549330EE
:100C4000E0F08336A1F18337C1F1833509F063C049
:100C50002801F2E04F0E511CF801C080D180692DAF
:100C600070E036FC02C06FEF7FEFC6010E94800784
:100C70004C01689437F882010AC00C5F1F4FFFE3F4
:100C8000F98388248394912C6501E89437F833FE26
:100C90002DC0522C8114910471F5552009F468CFB0
:100CA000B70180E290E00E9496075A94F6CFF801CF
:100CB000808189830E5F1F4FE4CF2801F2E04F0E41
:100CC000511CF801C080D180692D70E036FC02C053
:100CD0006FEF7FEFC6010E948B074C018201D5CFD9
:100CE000B70180E290E00E9496072A942814190424
:100CF00009F0B0F7CECFF60137FC859137FE819130
:100D00006F01B70190E00E94960751105A94F1E0EC
:100D10008F1A9108BFCF843619F0893609F077C051
:100D2000F80137FE6BC060817181828193810C5F15
:100D30001F4FF32DFF763F2E97FF09C090958095AA
:100D4000709561957F4F8F4F9F4F689437F82AE0D9
:100D500030E0A5010E94C607C82ECA188C2C432C6F
:100D600036FE0CC0E89440F8C91440F434FE05C0C7
:100D700032FC03C0F32DFE7E4F2E892C44FE95C01D
:100D8000FE01EC0DF11D8081803309F087C0242D18
:100D9000297E422E842D8870582E43FC95C040FE3B
:100DA0008FC09C2C821418F42C0C922C981844FEA2
:100DB00091C0B70180E390E00E94960742FE09C00F
:100DC00088E790E041FE02C088E590E0B7010E940C
:100DD0009607C91408F48AC0CA94D12C9FEFC91A87
:100DE000D90ACA0CDB1CF60182916F01B70190E0B1
:100DF0000E949607AC14BD04B1F74FCF608171819A
:100E0000072E000C880B990B0E5F1F4F92CFD32C2F
:100E1000E894D4F82AE030E0853739F1232D297F92
:100E2000D22E8F3601F148F48835A9F0F70186817A
:100E300097812B96E2E10C944008803749F088377F
:100E4000A9F7D4FE02C06894D2F820E130E00DC0CA
:100E50006894D4F8F6CF34FE03C0822F8660D82E73
:100E600020E132E002C028E030E0F801D7FE0FC0F8
:100E700060817181828193810C5F1F4FA5010E9467
:100E8000C607C82ECA183D2CE89437F867CF608192
:100E9000718190E080E00E5F1F4FF0CF42FC02C0F6
:100EA000839478CF8394839475CF842D867809F4C6
:100EB00071CFF6CFB70180E290E00E94960783944D
:100EC0008214C0F3512C73CF522C5818821408F49A
:100ED0006ECFF8CF842D867809F47BCF8BE241FE6C
:100EE00080E247FC8DE2B70190E071CFB70180E36B
:100EF00090E00E9496079A946CCF8FEF9FEF99CF66
:100F0000FC010590615070400110D8F780959095D4
:100F10008E0F9F1F0895FC016150704001900110D9
:100F2000D8F7809590958E0F9F1F08950F931F936C
:100F3000CF93DF93182F092FEB018B8181FD09C01F
:100F40001FEF0FEF812F902FDF91CF911F910F9106
:100F5000089582FF14C02E813F818C819D812817C6
:100F600039073CF4E881F981CF01019699838883A0
:100F700010838E819F8101969F838E83E3CFE885C6
:100F8000F985812F0995892BA1F3DACFFA01AA27D8
:100F9000283051F1203181F1E8946F936E7F6E5FBC
:100FA0007F4F8F4F9F4FAF4FB1E03ED0B4E03CD06A
:100FB000670F781F891F9A1FA11D680F791F8A1F4D
:100FC000911DA11D6A0F711D811D911DA11D20D0B4
:100FD00009F468943F912AE0269F11243019305D6E
:100FE0003193DEF6CF010895462F4770405D41935F
:100FF000B3E00FD0C9F7F6CF462F4F70405D4A33AC
:1010000018F0495D31FD4052419302D0A9F7EACF73
:10101000B4E0A6959795879577956795BA95C9F7A2
:1010200000976105710508959B01AC010A2E069495
:101030005795479537952795BA95C9F7620F731F4E
:10104000841F951FA01D08952F923F924F925F928B
:101050006F927F928F929F92AF92BF92CF92DF92C8
:10106000EF92FF920F931F93CF93DF93CDB7DEB72D
:10107000CA1BDB0B0FB6F894DEBF0FBECDBF0994C1
:101080002A88398848885F846E847D848C849B8418
:10109000AA84B984C884DF80EE80FD800C811B8126
:1010A000AA81B981CE0FD11D0FB6F894DEBF0FBE55
:0A10B000CDBFED010895F894FFCFC5
:1010BA00000000005401B400E100A1011201F00097
:1010CA0004010405060705090C0F0B0407030602B1
:1010DA00060C0F070B09050E070C090C050A050675
:1010EA00080C03020C010504050E05070E080B0285
:1010FA00070509040806040D0F040D040A0605086D
:10110A00010E050905090A0702020D060E0808085C
:10111A000808080B0C01030D0B0C02020D08080C41
:10112A00010D0D0E03050304090F0B0108070F0239
:10113A000F0B0F05020A05030A070E040E0103022C
:10114A000D010A080A06050B030C0E030103070228
:10115A00010609070F030D0B0A050B0E0E090307FB
:10116A00050F06080F040D03040F0A0103080E0AEF
:10117A00050E02080D05090F0D0707020E020606E5
:10118A000B0B070D0E08030E0D01060C0302040CCF
:10119A0002020709080707080603080807040C02E1
:1011AA000C0C04030E070709040A0E0708070B08AC
:1011BA0007030207020605080803090A0307030BC7
:1011CA000109030802080F0C050605050F060709A1
:1011DA00080A06050A0F0C0E0F040E09040D080969
:1011EA0008080C0C040B0B05090B020D0D0E0E055D
:1011FA00050103020C010F0E0F0E0904090F0A065E
:10120A0002060D03020E040B0C07070C0B0D020756
:10121A00050C060B010A0C0E06030B010F02060D44
:10122A000202090F0C0D0E0407050F080A0C0E0521
:10123A00040B0C02010B040D0F0302020E01060936
:10124A0006040605010E0A0A0A0F0E08040A030319
:10125A00060B090F0B0C0B0C08050B080A080703F1
:10126A000D040C030F0A0F0B0F0F050506070C03DD
:10127A00020D03070F09010D0B060F050E0D050DD3
:10128A000A030F0B080E01060C020B0C0F0E0809BD
:10129A00080D020A020406060C0D07080A01030ECD
:1012AA0007040E0D0502040A07010C030801060AC9
:1012BA00010F080F0109020C0D02010D0F0F080F93
:1012CA0009080E0E0C080D03040E0D01080A020986
:1012DA0006010F020C040805030205040F0C0B0794
:1012EA0002040A060108070C080B0306080F09097D
:1012FA000202090D020207050B06060D0F0E05066E
:10130A00020E0E02030E09030F0906080F0906084A
:10131A0004060A010C0E090D0F010C09090E020D33
:10132A000D040A02030201050F02080C07040F0E3E
:10133A000805010E0D0206090F0C0803070D01042A
:10134A000D05030E0C0F0A0C0F0C0D0A08020C0AED
:10135A00050D0E0E0A0A04080B0A0F0F0E010F0BD9
:10136A000E0B0A040E02090E0907080C0A0D0E0FCD
:10137A000F040C090D0E0D050B04090A07050A04D2
:10138A000A0C0D0E0C070B07050B0104040B0F08C2
:10139A00020C040A030B0C07070E07070909040DC0
:1013AA000F0E0D0209090E050D0D0B030F030F0C8D
:1013BA000A0D0F050C03070C0E080501010B080B9B
:1013CA000E0A080B070D010E0A060B0F020A0B097B
:1013DA00010701040C040A0E03040C060804070E94
:1013EA000404050704020704060405040A0C0E0394
:1013FA00060B070D0A080101010E040B0E06080E62
:10140A0007080F0709070B090B0A03020F0D01044E
:10141A000F0F0D0C0D0E0802070603040C0D060231
:10142A0003090E070F05090D0B09060A0D09070323
:10143A00050C040B050D060C0D04020C060A020A23
:10144A000A0F0B030D0F03050F030401020A080A12
:10145A000C0F09010B0506010B0D030307020A060F
:10146A000D03060E0103040E08090E060C070E04EE
:10147A000101090F0B0D0F0E030C0601030A060DDD
:10148A00070F0A0607030B0901020F080C0C030ACF
:10149A00020104080A0208060F0A0B0E0E0D010AC1
:1014AA000401050D010F0403030B0E0F070B010FB7
:1014BA000503070401040A01020F060A0F0A0801BC
:1014CA00020F090A0909090C040C03060C02010C93
:1014DA000F01030A080A090E0E040B0B0E030B0573
:1014EA000D0A010804010D010702080A0B070A0B7D
:1014FA000E020E0D0D0E0E0B0F0B090A0E0F0E0E1D
:10150A00020E0408020706020504070E050C0B0C5E
:10151A0002010A050C010209070A030F0A08090A4F
:10152A00080809050E020D09010305030C01080547
:10153A000806010C0F070E0307010B090802090A26
:10154A0007010204090C02060206020C040D020538
:10155A00030F0A050C0108020D0A0203010A0C0412
:10156A000207090607070B0D0A090D0506090F05EB
:10157A00020F040609020D0F0B02050E01090A07E4
:10158A00040F0F090D090A0F0901030401060C03D0
:10159A00090D030F02040E08060B0A040704040EC1
:1015AA000B0F07060A06080202090F0402010107C7
:1015BA000C0C020A090E0D0F0701050C070E080C88
:1015CA0006080E060902090C0E0F0B0D0205060984
:1015DA000E08040F0F0A0F0E08010E050B0B02036B
:1015EA000705090B0F0D080907010D080E0E040166
:1015FA000D0F090C010D04080B040A01040C0C0B55
:10160A0009010C080105020C0E0D0F090A040E0748
:10161A0007080105080F0A07070F0D0D090D0D0F21
:10162A000D0B0A020F060F0F050101050708030D2E
:10163A000C0C0A0C040801090706090808050F0F13
:10164A000F507265616D626C65203D202564200A29
:10165A000D0073697A656F6653656E64696E6752C9
:10166A006F6C6C696E67436F64653A202564200A63
:10167A000D00526F6C6C696E6720436F64653A2087
:10168A000D002564202C200D00526F6C6C696E676A
:10169A0020436F64652052657065617420446574E7
:1016AA006563746564200A0D0054727920726F6C48
:1016BA006C696E6720436F646520506F7369746943
:1016CA006F6E202564200A0D00202A2A2A20526FD4
:1016DA006C6C696E6720436F646520436F72726534
:1016EA006374202A2A2A202564203D202564200AA2
:1016FA000D0020526F6C6C696E6720436F64652021
:10170A00494E434F5252454354202564203C3E20C3
:10171A002564200A0D00202A2A2A20506173736545
:10172A006420526F6C6C696E6720436F6465204356
:0C173A006865636B73202A2A2A0A0D00E0
:00000001FF
